:10000000200F0020B51700007D4A0000891700006E
:100010008917000089170000891700008917000060
:10002000000000000000000000000000D5140000E7
:1000300089170000000000007D14000089170000EF
:100040005515000055150000551500005515000008
:1000500055150000551500005515000055150000F8
:1000600055150000551500005515000055150000E8
:1000700055150000551500005515000055150000D8
:1000800055150000551500005515000055150000C8
:1000900055150000551500005515000055150000B8
:1000A00055150000551500005515000055150000A8
:1000B0005515000055150000551500005515000098
:1000C0005515000055150000551500005515000088
:1000D0005515000055150000551500005515000078
:1000E0005515000055150000551500005515000068
:1000F0005515000055150000551500005515000058
:100100005515000055150000551500005515000047
:100110005515000055150000551500005515000037
:100120005515000055150000551500005515000027
:100130005515000055150000551500005515000017
:100140005515000055150000551500005515000007
:040150005515000041
:1001540053B94AB9002908BF00281CBF4FF0FF312A
:100164004FF0FF3000F070B9ADF1080C6DE904CE2A
:1001740000F006F8DDF804E0DDE9022304B070477E
:100184002DE9F047089E0D4604468A46002B7FD190
:100194008A42174641D9B2FA82F24AB1C2F1200129
:1001A40005FA02F39740944020FA01F141EA030A68
:1001B4004FEA17484FEA144C1FFA87F9BAFBF8FEC6
:1001C40008FB1EA30EFB09F14CEA0343994206D92E
:1001D400FB1802D2994200F224810EF1FF3E591A13
:1001E400A3B2B1FBF8F008FB101100FB09F943EAD4
:1001F4000144A14505D93C1902D2A14500F20E8162
:100204000138A4EB090440EA0E4000211EB1D44099
:100214000023C6E90043BDE8F08702B9FFDEB2FA65
:1002240082F2002A4FD1CB1B4FEA174E1FFA87F8F0
:100234000121250CB3FBFEFC0EFB1C302B4608FBF6
:100244000CF945EA0045A9450AD97D192CBF0123BB
:100254000023A94502D9002B00F0D9800CF1FF3C02
:10026400A5EB0905A3B2B5FBFEF00EFB105508FB88
:1002740000F843EA0544A04505D93C1902D2A0453B
:1002840000F2C9800138A4EB080440EA0C40BDE741
:100294008B4208D9002E00F0B1800021C6E9000588
:1002A4000846BDE8F087B3FA83F1002946D1AB4292
:1002B400C0F0A780824240F2A4800846002EAAD053
:1002C400C6E9004AA7E7C2F12000974001FA02F309
:1002D4004FEA174EC14024FA00F51FFA87F89440FC
:1002E4001D43B1FBFEF02B0C0EFB101100FB08FCB0
:1002F40043EA01439C4509D9FB182CBF0121002185
:100304009C4502D9002900F095800138A3EB0C0329
:10031400ADB2B3FBFEF10EFB113301FB08FC45EA61
:100324000345AC4505D97D1902D2AC4500F289805C
:100334000139A5EB0C0341EA00417AE7C1F120043D
:100344008B4002FA01F705FA01FCE24020FA04F8B6
:10035400E54000FA01FE134348EA0C024FEA134851
:100364004FEA124C1FFA83F9B5FBF8FA08FB1A5549
:100374000AFB09F04CEA054C60450AD913EB0C0C56
:100384002CBF01250025604501D9002D55D00AF167
:10039400FF3AACEB000C92B2BCFBF8F008FB10CCBB
:1003A40000FB09F942EA0C4CE14505D913EB0C0CAE
:1003B40001D2E1453BD8013840EA0A40ACEB090CD4
:1003C400A0FB0789CC4545464A4602D306D1C6451B
:1003D40004D20138B8EB070569EB03022EB3BEEB78
:1003E40005036CEB020C23FA01F20CFA04F42CFA68
:1003F40001F300211443C6E900430CE731463046BB
:1004040009E7841A65EB030301209A4656E7ACF129
:10041400020C3D4424E702383C4434E702383C44AF
:10042400EFE6AEF1020E3B44D9E63146F3E602387C
:100434009C44C1E702383B4468E7AAF1020A9C44A1
:10044400A7E702393D4474E7704700BF38B5104C44
:10045400204604F0FFFDC8B12269A56813681C2179
:1004640043F08053136020462B680A4A98470028BB
:100474000CDB4FF0805120466B699847002805DB60
:1004840000214FF4004003F035FEF2E738BD00BF11
:10049400B4530000010006000B6801330B60014BEC
:1004A4001B68184700000020014B1860704700BF0C
:1004B4000000002007B50B460021024601910348C5
:1004C40001A900F0EBF803B05DF804FB9D04000003
:1004D4002DE9F84FB0F81890044619F0080893462F
:1004E4000DD001290CBF49F0100949F02009A0F8EA
:1004F40018908BF31188BFF36F8FBDE8F88F09F064
:100504000709022907D1204604F08BF90028F0D00E
:100514000128238B50D16769218B002F15DA2568B8
:1005240021F00701C4E9008841F00101218300267C
:10053400218B01F0070ACA4502D0A368002B5CD1C5
:100544000DB9002E74D0002358E001F007035A1FA0
:10055400012A20D821F00701062B256889B2C4E9B5
:1005640000880CD1002D2B4638BF00232BB1628BA1
:100574001B6801326283002BF8D141F0020120464E
:10058400218304F04EF906460028D1D0238B43F092
:1005940020032383CBE7042B0CD121F0070189B27C
:1005A4002046218304F03DF905460028BFD041F0E0
:1005B400200121830025BAE7032809D1226923F009
:1005C4000703166843F00603002523832F46AFE78D
:1005D400042806D1226923F00703566843F0040374
:1005E400F2E7052806D1226923F00703966843F051
:1005F4000503E9E700252E46E8E7012341F0080159
:1006040021838BF31188BFF36F8F03BB002D33D18C
:1006140016B120462049B0474FF02003EFF3118B69
:1006240083F31288BFF36F8F238B23F00803238394
:10063400238BDA0628D5012123F010032383B4F891
:10064400189009F0070900297FF45BAF51E7A1680E
:100654000029DBD00B68002B38BF00239946524693
:100664003B462046D1F804B0D847B9F1000FCDD0AD
:100674004946D9F80030EEE729463B465246204623
:100684002D6804F0EAF8C1E713F020011EBF23F03F
:10069400200302212383D2E78B4800002DE9F04F89
:1006A4008B4692461C46002591B002909AF80000B1
:1006B40008B928465EE325280AF1010707D0594600
:1006C400029B98470028C0F25583013510E2182296
:1006D40000210AA804F01CFA9AF80130252B78D0DE
:1006E40000229446164696461046394617F8013BB2
:1006F4002B2B00F09D8000F29480202B00F09B8037
:10070400232B00F09A8028B19DF8300040F00400BB
:100714008DF83000BEF1000F05D09DF8300040F098
:1007240008008DF830002EB19DF8300040F0100024
:100734008DF83000BCF1000F05D09DF8300040F07A
:1007440020008DF830002AB19DF8302042F040029C
:100754008DF830209DF8302002F04400442803D165
:100764006FF386128DF830209DF830202A2B42F04A
:1007740080028DF830207BD19DF831204B1C42F053
:1007840001028DF831201A782E2A0CBF0121002194
:100794009DF8312061F341028DF8312074D15A78EB
:1007A4002A2A6AD000210A260133184610F8012BA0
:1007B400A2F13007092F40F28E809DF830200E916F
:1007C400C2F3400040EAD17161F341028DF8302058
:1007D4005AE00AF102078DF833309DF83130D90719
:1007E40040F1498154F8049BB9F1000F07DA9DF8F0
:1007F4003020C9F1000942F004028DF830205A0774
:1008040040F1428154F8048BB8F1000F80F2418129
:100814009DF831306FF341038DF831304FF0FF38DC
:1008240037E12D2B0CD0302B7FF46DAF01225CE728
:100834004FF0010E59E7012657E74FF0010C54E73A
:10084400012052E733460CFB0202303A1E4616F8EA
:10085400010BA0F13007092FF4D9994293D09DF8E8
:1008640030100D92D20F62F341018DF830108AE7F7
:100874000B4600224FF00A0CE8E79DF831200233C2
:1008840042F004028DF831201F4617F8012B6C2A20
:1008940041D025D8682A2BD06A2A46D04C2A4CD07D
:1008A4001F4617F8012B9DF83130782A8DF8332034
:1008B40000F2D980572A4DD8412A03D0453A022A5A
:1008C40000F2D18004229DF8323062F302038DF8E5
:1008D400323001239EE006FB01210346303964E7F0
:1008E400742A26D07A2ADBD106229DF831300DE015
:1008F4005A78682A9DF8312006D1012161F3C60295
:100904008DF831209F1CCCE71346022262F3C60304
:100914008DF83130C5E75A786C2A9DF8312001D121
:100924000421EBE713460322F0E705229DF831305A
:10093400ECE707229DF83130E8E7BDF8303023F4C6
:10094400F04323F0020343F4804343F00203ADF881
:100954003030A6E7A2F15801202900F2848001A0DA
:1009640050F821F02D0A00006B0A00006B0A000009
:100974006B0A00006B0A00006B0A00006B0A00009F
:100984006B0A00006B0A0000C90800006B0A000033
:100994002D0A0000ED090000C9080000C908000084
:1009A400C90800006B0A0000ED0900006B0A000092
:1009B4006B0A00006B0A00006B0A0000350A000095
:1009C4002D0A0000510A00006B0A00006B0A0000A7
:1009D400510A00006B0A00002D0A00006B0A000097
:1009E4006B0A00002D0A000001209DF8321003F06C
:1009F400780360F30201402B8DF8321002BF9DF89A
:100A0400301041F001018DF83010632A31D1003BE0
:100A140018BF01239DF83020C2F340010B4363F358
:100A240041028DF83020D8E602209DF83210DEE72E
:100A340003219DF8322003F07803A3F1400061F311
:100A4400020243428DF832204341E3E703219DF83B
:100A5400322013F0780F61F3020214BF0123002344
:100A64008DF83220D6E79DF8303043F001038DF83D
:100A740030300023CEE79DF93020002AACBF4FF080
:100A8400FF39DDF83490BAE69B077FF5C7AEDDF891
:100A940038800023CDE90D339DF832309DF83120A4
:100AA40003F00703012BC2F3C30236D1D31E042B78
:100AB40020D8DFE803F00307071F1F0054F8040BD6
:100AC400C11704E0073424F00704F4E80201CDE977
:100AD4000A019DF8303013F0030654D03B465246C9
:100AE4005946029803F09DFF0028C0F24381054453
:100AF400BA46DBE554F8040B012A4FEAE071CDE96C
:100B04000A0105D19DF828300A9300230B93E0E7EE
:100B1400022ADED1BDF92800D2E7022B23D1D31E4D
:100B2400042B13D8DFE803F0030A0A121200002191
:100B34002068231D0A900B911C46CAE7073424F051
:100B44000703F3E80201CDE90A01F5E754F8043B91
:100B5400012A0A934FF000030B93D3D0022AB8D191
:100B6400BDF82830D0E7042B07D1073424F007045C
:100B7400F4E80201CDE90A01ABE7032B04BF54F802
:100B8400043B0A93A5E79DF833007828B0D862287F
:100B940022D825283FF493AD5828A9D1DDE90A01CC
:100BA4000DF1260300930CAA04AB03F0EFFE82467A
:100BB400B8F1000F0DF126000CDB9DF83020A0EBFE
:100BC4000A036FF3861298458DF8302002D9A8EBFA
:100BD40003030D9380463DE06338152888D801A1AE
:100BE40051F820F0690C0000CD0C0000F50A00005B
:100BF400F50A0000F50A0000F50A0000CD0C00001B
:100C0400F50A0000F50A0000F50A0000F50A0000E4
:100C14002B0D0000F90C0000FD0C0000F50A00008B
:100C2400F50A0000410C0000F50A0000F90C000070
:100C3400F50A0000F50A0000F90C0000B8F1000FF5
:100C4400DDF828A00ADB4146504603F04DFF00269C
:100C54000AEB0008BAF1000F0CD149E7504603F043
:100C64003CFFF4E700260A9B0DF111088DF81030C3
:100C74000DF1100AA8EB0A0306B101339DF83220E6
:100C8400D0066BD5023352060D9948BF0E9A0B4419
:100C940048BF9B18B9F1000F79DD9DF83020A9EB0E
:100CA4000309C2F380030393530770D4500664D539
:100CB40046B159463046029B984700285ADB039BAD
:100CC40001351E46302359E01E0711D413F01006D7
:100CD40018BF2026DDE90A23002A73F10001BFF6BC
:100CE4005DAF524263EB43032D26CDE90A2355E75A
:100CF4002B26EFE7002651E70A9848B30DF12603A7
:100D04000093002104AB0CAA03F040FEBDF832307E
:100D1400824603F0EF0343F4F04343F0100300264C
:100D2400ADF8323044E70A9B072A3FF6E1AEDFE82C
:100D340002F00D04060D08080D0D1D70D8E61D8087
:100D4400D6E62846E917C3E90001D1E61D60CFE6DF
:100D5400DFF8C4800646A8F1050A8BE7110748BFEF
:100D6400013390E7184603935946029B984700289D
:100D7400039B04DA11B0BDE8F08F20234D444A46AA
:100D8400002AA5EB090109F1FF39EBDC0D4636B168
:100D940059463046029B98470028EBDB01359DF805
:100DA4003230D90601D41A0706D559463020029BA1
:100DB40098470028DEDB01359DF83230DB0607D585
:100DC40059469DF83300029B98470028D2DB013531
:100DD4000D9E2E44731B002B16DC43465246594687
:100DE400029803F01EFE0028C4DB0544A944A9EBC5
:100DF4000503002B7FF77CAE59462020029B9847C1
:100E04000028B7DB0135F2E759463020029B9847AA
:100E14000028AFDB0135DDE72158000008B54FF0AD
:100E24002002EFF3118382F31288BFF36F8F00F077
:100E3400EFFC034803F0E8FC00F098FAFCE700BF7D
:100E440022580000094B0A4900F01F0240090128FA
:100E540008BF0B4603EB8203D3F8002222F0E042E2
:100E640042F04052C3F80022704700BF002584506E
:100E74000028845070B54FF02003EFF3118683F3FC
:100E84001288BFF36F8F01240C4B0D4DC3F800453E
:100E940002230020C5F8D036FFF7D4FF2046FFF721
:100EA400D1FFC5F80447C5F80449C5F8004B86F3DB
:100EB4001188BFF36F8F002070BD00BF0010005079
:100EC4000040005048B1054B1A68054BB2FBF3F2E1
:100ED400044B504343F0010318477047400000207F
:100EE40040420F0040560000062807D10122044B5F
:100EF400C3F80025BFF34F8F20BFFDE7704700BF45
:100F0400004000502DE9F84305464FF02003EFF36D
:100F1400118683F31288BFF36F8F104B1C68002C6B
:100F240038BF00249CB14FF00C090D4FDFF834801A
:100F3400D4E90132002D08BF13462BB198F81420D0
:100F440009FB02F2B85C98472468002CF0D186F3C0
:100F54001188BFF36F8FBDE8F88300BFB80200208B
:100F6400C0020020080900200123420900F01F00EC
:100F740003FA00F0C043054B03EB8203D3E8EF2FE1
:100F84000240C3E8E12F0029F8D17047CC020020C9
:100F9400012238B5174B1D7D05F01F039A40D0433D
:100FA400154B690903EB8103D3E8EF1F01EA000441
:100FB400C3E8EC4FBCF1000FF6D1114213D00F4B34
:100FC4000F4C8BB10C236B43E2185178E05C03F0B7
:100FD4003FFD0020FFF796FF0C2300226B43E1182E
:100FE400E250C1E9012238BD83F31188BFF36F8F4A
:100FF400EFE700BF08090020D0020020554A000096
:10100400C00200202DE9F8432F4B07461C7D4FEA10
:1010140054184FEA88082D4B4344D3E8AF3F04F0FB
:101024001F0943FA09F313F0010F294E0AD10146AF
:10103400204600F063F828B107C80C2303FB0463BF
:1010440083E807000C236343F55CF2182DB92046AE
:10105400FFF78AFF2846BDE8F8837B1C0FD04FF4C6
:1010640000450021D2F808C01A480023E5FB0C0112
:10107400194AFFF76DF80121381A04F03BF902F020
:10108400A7FD0120FFF73EFF012303FA09F9134BE3
:101094009844D8E8EF3F43EA0903C8E8E23F002A4E
:1010A400F7D10F4B33B10C236343F2185178F05C42
:1010B400FFF71AFFFFF76CFF2046FFF755FF02F01A
:1010C40063FF0120C7E700BF08090020CC0200200D
:1010D400C00200203F420F0040420F00D002002017
:1010E400ED0E0000044B03EB8000D0E8AF0F003896
:1010F40018BF0120704700BFD40200202DE9F74F2C
:101104000E4601A900F048F84FF00009441EDFF82C
:10111400808024B2631C04D10025284603B0BDE8B6
:10112400F08F019A04EB440312F8230002EB8305C9
:10113400FFF7D8FF38BB4FF4004A4FF0000C696842
:10114400DFF850B04246EAFB01BC4B4658466146C4
:10115400FEF7FEFF4FF0000CA968DFF838B04B46ED
:10116400EAFB01BC0746424658466146FEF7F0FFDB
:10117400064B1B68591C01D0834204D9721CCCD085
:101184003844B042C9D9013C24B2C3E7040000206A
:1011940040420F003F420F0008B9024B0B60002091
:1011A400704700BF48560000014803F0E3B900BF90
:1011B4004856000008B508B34368042B07D0082B31
:1011C40013D0F3B1006802F01BFC00200CE00022F5
:1011D4000368D3E8EF1F012903D1C3E8E02F0028F7
:1011E400F7D1094808BF104608BD036800201B78E2
:1011F400064A03F5807342F82300F5E76FF4E040F4
:10120400F2E70348F0E700BFE98FFFFF0000035057
:10121400EA8FFFFF10B5044618B90D4B0D485B6803
:101224009847616808290DD031F004030AD011F001
:10123400020108D02146084803F050FF0023236030
:101244000023636010BD1422206803F061FCF7E7FB
:10125400CC0000204B580000F002002010B50446DA
:1012640018B9164B16485B6898476368042B23D05B
:10127400082B21D0CBB92368BBB94FF0FF324FF014
:10128400FF3321460F4802F063FA08B923681BB9FB
:101294000A4B0D485B68984714220021206803F02C
:1012A40037FC636843F002036360206803F04CFF7B
:1012B400636843F00103636010BD00BFCC000020ED
:1012C4004B580000F00200207158000008B540B3EC
:1012D4004368042B0BD0082B16D003B300684FF0DF
:1012E400FF324FF0FF3302F00DFB58B115E001223D
:1012F4000368D3E8EF1F002903D1C3E8E02F0028D7
:10130400F7D10AD1002008BD0368074A1B7803F50A
:10131400807352F82330002BF4D00448F3E70448D8
:10132400F1E76FF4E040EEE700000350E98FFFFFC0
:10133400EA8FFFFF08B5064940231422054803F04D
:10134400B2FEBDE808400449044803F075B900BF83
:101354000C030020F00200206056000050560000EC
:10136400014910220A60704710ED00E072B6404057
:1013740080F31188BFF36F8FBFF34F8F30BF62B616
:10138400BFF36F8F704700BF72B6494081F3118875
:1013940020BF80F3118862B6704700BF43B2002BB0
:1013A40008DB012200F01F0002FA00F0024A5B0988
:1013B40042F82300704700BF00E100E0054B4209FA
:1013C40053F82220012300F01F0003FA00F010401C
:1013D400704700BF00E100E043B2002B01F10101BE
:1013E400ACBF03F16043064B4FEA4111C9B2ABBF36
:1013F40003F5614300F00F0083F80013195470479C
:1014040014ED00E030BFFFF7FDBF00BF0B4A08B585
:101414000B4B22F07F029A60BFF34F8FBFF36F8FA5
:10142400D3F8882022F47002C3F8882002F0C4F8AC
:1014340002F0D2FE00F0B0F902F0FEF80000000065
:1014440000ED00E0094A0A499368096858679967FA
:1014540008494B6843F080534B60002383F31188A1
:10146400BFF36F8F9368986F704700BF080900201F
:101474008C57000000ED00E013498A684FF03000FB
:101484001044EFF3098C80E8F01F202080F31288C9
:10149400BFF36F8F0D4F4FF00066CA698A603E60DC
:1014A400506F0023536780F3118802F1300090E8F5
:1014B400F01F8CF3098802F1000004B503F0E3FA8D
:1014C400BDE80440704700000809002004ED00E076
:1014D4001EF0040F0CBFEFF30880EFF3098081695D
:1014E40011F8021C0229FFD001B503F0BDFA01BDB9
:1014F40042F8203C009B0B4942F81C3C019B21F024
:10150400010142F8183C029B42F8081C42F8143CC2
:101514004FF0807342F8043C0023203A026543678D
:10152400704700BF7D490000084B9860436E83F309
:101534000B88104681F30988002163B681F3118872
:10154400BFF36F8F0022002303F016FA080900206E
:1015540001B572B60B4A906900281EBF0021916143
:1015640003F0EBFD62B6EFF30580A0F110004FEA43
:10157400C0000549014409C99847BDE80140034931
:101584000847000008090020FC53000095150000DE
:10159400044B9968D869884203D003494FF08052BC
:1015A4000A6070470809002004ED00E0124B9A6AB3
:1015B4009A6A9A6A920708D55A6B9A6A120604D5EF
:1015C40018B19A6A22F080029A620B4B9A6A9A6A5C
:1015D4009A6AD0064FF0000058BF9A6A9A6A920637
:1015E40042BF5A6A22F400525A62034A936A43F091
:1015F400FF0393620870704700ED00E00D4B9A6A98
:101604009A6A9A6A920508D59A6B9A6A120404D562
:1016140018B19A6A22F400429A620020054B9A6A31
:101624009A6AD20558BF9A6A9A6A42F47F429A62C9
:101634000870704700ED00E0094B9A6A9A6A986A4C
:101644009A6A9A6A9A6A9A6A9A6A10F480106FEA95
:1016540002426FEA124218BF02209A62704700BF2A
:1016640000ED00E070B53E4B0E465B6800258AB085
:10167400C3F3080385F31188BFF36F8F02F07F4132
:10168400B1F17F4F11D102F00C0108290DD01207DE
:1016940001D4064601250022033B8DF80720032BC5
:1016A40056D8DFE803F0044D514A2E46F3E72C4B9D
:1016B400DC6A14F002044BD1DA6A002A17DBDB6A15
:1016C4005B0014D5B36933F8022C4DF602739A42C9
:1016D4000CD003F1604303F626631B78FBB10120B1
:1016E4000DF10701FFF762FF044600E034689DF83E
:1016F400073093B92022314602A803F0FEF9099B72
:1017040045B3C3F3080222B96FEA53236FEA4323B4
:101714000993204602A903F0A5F90AB070BD114B44
:101724001B782BB101200DF10701FFF767FFDBE701
:101734000D4B1B889BB2002BD9D0FFF77DFFD3E75D
:1017440000200DF10701CDE700200DF10701ECE7C2
:101754000024CCE723F4FF7323F00103D8E700BF90
:1017640000ED00E029ED00E02AED00E0044B5A69A9
:1017740042F010025A615A6942F480625A61704719
:1017840000ED00E0EFF30880EFF3098101B5724644
:10179400FFF768FF01BD00BF002320210348C218E2
:1017A4000133452B82F80013F9D1704700E100E0C2
:1017B400002080F31488BFF36F8F002080F30A8821
:1017C40080F30B8803F0BAFD00200E490860BFF3D4
:1017D4004F8F0D4880F3088800F03CF8202080F3F8
:1017E40011880A484FF40061401880F30988EFF328
:1017F40014800221084380F31488BFF36F8FFFF72E
:1018040005FE000094ED00E0200F00206010002091
:10181400BFF34F8F0549064BCA6802F4E0621343D5
:10182400CB60BFF34F8F00BFFDE700BF00ED00E0CA
:101834000400FA0500231846054A1168C1F307217C
:101844008B4200D17047936010610133F8E700BF09
:1018540090ED00E010B572B6002484F31388FFF70E
:10186400E9FF0E4A234611464FF0FF3403F12000EE
:101874000133102B42F82040F8D100234FF0FF3001
:1018840003F160020133102B41F82200F8D162B653
:10189400BFF34F8FBFF36F8F10BD00BF00E100E0B7
:1018A400084B9B6883420BD1EFF3058343B1064B8E
:1018B4005A6842F080525A605A6A22F400425A62CC
:1018C40002F038BC0809002000ED00E01FB5094C07
:1018D400094A23460121094800F0DCF80023039358
:1018E400074B0121E41A01A80193029400F0DCF8EB
:1018F40004B010BD00000720000000207456000052
:101904009001002010B50B680C7A23F01F0204F03C
:101914001F031A43CB68640923F01F03044943EAF5
:10192400440343F001038860CA600B6110BD00BF2B
:1019340090ED00E02DE9F04F8846144606464FF03E
:1019440000094A4D85B0C14505DA7768B7B31F2F42
:1019540005D86FF01504204605B0BDE8F08FFB06EE
:10196400F7D1D6F800A01AF01F0FF2D1504603F0B9
:101974008EF8834607EB0A00013803F088F88345A4
:10198400E7D11BF1160FE4D05C45E2DDC5F808B0E1
:10199400E968C5F808B02F6921F01F01D6E90032C3
:1019A4001A44994247F01F0702F1FF3A1CD15745E8
:1019B40008D131465FFA8BF003F072F809F101099E
:1019C4000C36C0E73146C5F808B0EB6822F01F02B8
:1019D40003F01F031A43EA60E0B203F061F810F168
:1019E400160FB6D0441CE9E7013B5745E0B223F09B
:1019F4001F03C5F808B006D12A69314602F01F0258
:101A040013432B61E9E7296901F01F010B432B61A3
:101A1400314603F045F810F1160F9AD0C5F808B016
:101A2400EA689DF80830013F62F304038DF808303A
:101A34002B699DF808205B0863F347128DF8082092
:101A4400D6E900321344009323F01F033B44441CA3
:101A5400A3EB0A0AE0B22AF01F03072803933FF618
:101A640078AF6946FFF74EFFBCE700BF90ED00E09A
:101A74000522034B5A60BFF34F8FBFF36F8F70473C
:101A840090ED00E0BFF35F8F0022014B5A60704776
:101A940090ED00E010B5034C2278FFF74BFF207067
:101AA40010BD00BF180B00202DE9F74F264D8A46C4
:101AB40006464FF00008AB46244FD0451BDAD6F853
:101AC4000490B9F1000F39D031680846019102F051
:101AD400DEFF0199044609EB0100013802F0D7FF4B
:101AE40084424FF014021A4B08D06FF0150302FB26
:101AF40008F84BF8083003B0BDE8F08F14F1160F66
:101B04002C60F8D01978A142F5DD02FB08B0BC6066
:101B1400BC60FC6800F10801007B64F304000871F8
:101B240038690C79400860F347140C71F96821F0A6
:101B34001F016960396921F01F01296108F1010859
:101B440014350C36B9E700BF0C08002090ED00E016
:101B5400180B002038B50E4C2568082D14D8FFF753
:101B640091FF00200B4B0C4A1A63854205D10B4BA5
:101B74001D70FFF77DFF002038BD616801EB001187
:101B8400FFF7C0FE0130F0E74FF0FF30F4E700BF8D
:101B94008056000090ED00E0AAFF4400180B0020DE
:101BA400014B1860704700BF280000200E4A70B532
:101BB400841A05460C20A3100C4C0E465C43E4B278
:101BC40000FB04204021783002F0B7FF011E05DB42
:101BD400074B03EBC4046368984700212846334647
:101BE400BDE87040184700BF30080020B76DDBB671
:101BF400C05600002DE9F0410C25104E8046841B90
:101C0400A3100F4C0F465C43E4B2654305F1780022
:101C14004021304402F0AAFF011E09DB094A73196E
:101C2400C3E91C27084B53F83430BDE8F04118478A
:101C340040463B46BDE8F041184700BF300800204D
:101C4400B76DDBB6D34B0000C05600002DE9F84356
:101C54000022012106460520FFF7BEFB114801F0D2
:101C640057F8114B984219D103F089F900244FF029
:101C74001C080C27DFF834903569494608FB0450EA
:101C840002F01EFE002807DB012307FB04551C4459
:101C9400042CAB67F0D10020BDE8F8836FF004009A
:101CA400FAE700BFE91C00000000AD0BE05600009D
:101CB40001460C2300224B43084870B5C4187833FE
:101CC400D4E91C561844226702F06EFF2DB1324647
:101CD4002B46BDE870400248184770BD300800200C
:101CE4009C530000052811D8DFE800F0030E101003
:101CF4000C0A074B986F10F0070007D1FFF7D8BF05
:101D04000220FBE70320F9E70120F7E7704700BF53
:101D14003008002008B54FF02003EFF3118183F35E
:101D24001288BFF36F8F124A136843F0020013F056
:101D3400010310600CD04FF05022D2F80C34D2F8CA
:101D44000C2413F0010303D00A4802F02DFF0123F1
:101D540081F31188BFF36F8F23B1BDE808400020E1
:101D6400FFF7A6BF0120BDE8084000F0E1BF00BFB7
:101D7400D0080020A8080020074BD3E8EF2F22F05A
:101D84000201C3E8E01F0028F7D1D30702D40120E1
:101D940003F007B9704700BFD00800201FB5002228
:101DA4000123CDE902236B46084ACDF800D0CDF8D3
:101DB40004D002F03EFF002805DB4FF480420023EC
:101DC400684601F083FE05B05DF804FB094C000091
:101DD4002DE9F843012206463949D1E8EF3FC1E82D
:101DE400E02F0028F9D133B9364937484B60CB602E
:101DF4008A6002F078FD731E012B32D8012E07D1C0
:101E04004FF05023D3F81C3403F00303022B28D0E3
:101E140003F08DF9044618B92C4B1B78002B47D1DD
:101E24004FF02003EFF3118583F31288BFF36F8F14
:101E34000124274FDFF89C80DFF89C904FF050225C
:101E4400D2F81834D2F81824D2030CD503F00303C3
:101E5400022B01D0012E06D124B385F31188BFF3E0
:101E64006F8FBDE8F883C4B12846FFF78DFA4FF0B1
:101E74005022D2F81835DBB2012BDFD139680029A2
:101E8400DCD00021396039680221C2F818152022FB
:101E9400C8F88021C9F80030D0E70021212002F0E1
:101EA40029F9E4E74FF050230222C3F80423D8E7CA
:101EB4004FF0502302220546C3F80823B9E700BFB8
:101EC400D4080020200800204C080020190B002012
:101ED4000451005000E100E00850005008B50848E3
:101EE400084B186003F0B6F838B10748FFF758FEFE
:101EF4000548FEF7D9FA002008BD6FF01200FBE791
:101F0400E4530000D8080020111F00000A2838B547
:101F14000446074D04D1286883680D215B689847FF
:101F240028688368E1B25B689847204638BD00BFE3
:101F3400D80800204209034670B502D0012A1CD0FB
:101F440070BD0F4E326951680029F9D00C68012523
:101F5400002C38BF002403F01F039D408A682A40E8
:101F640002D030464B689847002CE9D023682146BC
:101F7400002B38BF00231C46F0E7024EE2E700BF07
:101F8400B4530000CC53000030B5406801F01F0585
:101F9400047BB2F5001F45EA441585B04FF00004F8
:101FA40004D1284601F0B4F9002032E0B2F5800FE4
:101FB400CDE902442FD1B3F1007F0CBF04230523E4
:101FC4008DF80830836823FA01F1C9072FD4B2F1E0
:101FD400A07F2CD11E491F486A09012A14BF0A4652
:101FE400024605F01F03803352F82330DB071ED46A
:101FF4000DF107042146284601F0F6F8164B9842E5
:1020040014D1204601F03AF9144B98420ED06FF0E7
:102014000B0005B030BDB3F1C06F05D0B3F1007F44
:102024000CBF02230123CBE70323C9E70394002356
:102034002846194602AA00F0B3FF084B984204D17F
:102044000121284601F020F9AEE76FF00400E0E733
:1020540000258450002884500400AD0B0000AD0B13
:1020640010B501F0FBF8044668B901F0CFF8084B4D
:1020740098420AD12146074801F0B0F822460521CA
:102084000D20FFF7A9F9002010BD6FF00400FBE755
:102094000000AD0B391F00002DE9F043476801F043
:1020A4001F053B7B0E46144685B045EA4315CAB965
:1020B40002A9284601F098F80446284601F04AF996
:1020C400494B984204D06FF0040005B0BDE8F0839A
:1020D400844205D19DF8080001F0CAF8A042F2D16B
:1020E4000020F2E74FF000090DF103013046CDE97D
:1020F400029901F079F84B4680464946284602AADF
:1021040000F04EFF384B984202D06FF01500DCE728
:10211400804503D19DF8030001F0AAF8A3034FD52D
:1021240040F2066340F20622234093423AD00CD890
:10213400062B15D004D89BB1022BE6D104230FE063
:10214400B3F5007FE1D101230AE040F20242934259
:102154002AD0B3F5C06F29D0B3F5806FD5D102234F
:102164008DF8043084F48033C3F30043E0068DF823
:1021740005304CBF0323C4F3401321038DF806300C
:1021840016D501217B6801FA06F69E6000222846D6
:1021940001A900F0B1FF144B984214BF6FF0150071
:1021A400002092E70723DBE70523D9E70323D7E7DA
:1021B400620341BF01217B6801FA06F6DE60E5E7B0
:1021C400E3064FF000034CBF0324C4F340141A4643
:1021D400284601A98DF8044000F0E2FE024B984223
:1021E4003FF47EAF91E700BF0000AD0BF0B54B7933
:1021F400012B28D0032B23D110248B79032B1FD13F
:10220400CE790EB1012E1BD10A79012A1DD0022AE2
:102214001FD0AAB915460B684768B3F5164F3F6837
:102224006ED033D8B3F5165F6DD01CD8B3F5966F66
:102234006BD010D8B3F5967F6AD0B3F5167F6AD009
:102244006FF085005BE00024D7E74FF480750E2221
:10225400E1E70025FBE7B3F5166F5FD0B3F5965FB2
:10226400EED1394B3EE0B3F5E14F5AD007D8B3F580
:10227400615F58D0B3F5964FE2D1344B32E047F664
:10228400122C6345DCD14FF400032BE0B3F5613F1E
:102294004BD013D8B3F5963F4AD009D84DF6C02C8D
:1022A400634547D0B3F5614FCAD14FF46B0319E0CE
:1022B400B3F5E13FC4D14FF0EB7313E0B3F5612FF5
:1022C4003BD009D8DFF898C0634539D0B3F5E12F86
:1022D400B6D14FF0E86305E0DFF888C06345AFD1BD
:1022E4004FF08053006922433543C7F824352A430D
:1022F400031DC7F86C2503C983E803000020F0BD63
:102304004FF41D03EEE7124BECE74FF49E23E9E78D
:102314004FF4A033E6E74FF41C33E3E74FF41D23F7
:10232400E0E70C4BDEE70C4BDCE74FF06C73D9E7CE
:102334000A4BD7E74FF46503D4E74FF07063D1E756
:102344004FF08063CEE700BF00B0130000A04E0042
:102354000050270000C0750000F03A0000903A01D8
:1023640090D0030040420F002DE9F74307460022B6
:1023740001210820FFF730F80820FFF70FF80021AB
:10238400D7F804803E69D8F80040D8F80C90C4F817
:1023940000154846376001AA02F01DFD051E50DBFA
:1023A400019BD9F800201979186802F031FD051E47
:1023B40047DB3846311DFFF719FF0546002840D199
:1023C400D8F80430990713D506F1120000F06EFD19
:1023D4001F4B984239D1B37C43F00043C4F8A03179
:1023E400C4F88C300123B27C93401A4AC2F80435F5
:1023F4000823C4F8003598F808305BB9C4F81031E4
:10240400D4F8103106F11103C4F834350123C4F8AB
:1024140038352360D8F8043010369A075CBF4FF47F
:102424008072C4F80423DB0644BF4FF48003C4F86D
:1024340004330023C4F84465C4F848350123A36079
:10244400E360284603B0BDE8F0836FF00405F8E7C5
:102454000000AD0B00700150F8B506460F46046944
:1024640002F065FE10B92D4B1B7883B94FF02003A1
:10247400EFF3118583F31288BFF36F8F706802F056
:1024840099FC28BB85F31188BFF36F8FEEE76425B1
:10249400706802F08FFC70B9012002F06EFD013DFE
:1024A400F6D10021212001F025FEF0E785F3118803
:1024B400BFF36F8FF5E74FF02003EFF3118583F33C
:1024C4001288BFF36F8F706802F074FC0028EDD09F
:1024D400012204F8107F71680B68C3F84445C3F8FF
:1024E40048250022C3F82021D3F82001C3F858213D
:1024F400D3F858214A68D20608D5082172681268B0
:10250400C2F800154FF48002C3F8042301229A6034
:1025140085F31188BFF36F8FF8BD00BF190B00203E
:10252400194970B5044622F07F460868C1E90023C2
:10253400A6F50013101AB3F5400F4FF000050AD2A8
:102544000125124B19680A060B0A9219104943F126
:102554000003C1E9002301F02DFFA30003F1502380
:1025640003F58033D3F84025B2420BD11DB94FF4A3
:102574000002C3F840254FF48030064B00FA04F4FF
:10258400C3F8444370BD00BFA8010020FC0800202C
:1025940090010020005001500123834010B5DC431A
:1025A4000D4AD2E8EF1F01EA040CC2E8EECFBEF1F7
:1025B400000FF6D14FF4803202FA00F002F15022FB
:1025C400C2F80803BFF35F8FBFF36F8F0B4214BFD2
:1025D4000120002010BD00BFF808002001230E4A8E
:1025E4008340D2E8EF1F1943C2E8EC1FBCF1000F8F
:1025F400F7D14FF48033094A8340C2F80433084BBF
:10260400D3E8AF3F23FA00F0C30742BF4FF40012F0
:10261400044BC3F800217047F80800200050015013
:10262400F408002000E100E00D4B1B68190A1806AD
:10263400BFF35F8F0B4BD3F80435C01841F1000191
:10264400B3F5801F0AD2084BD3E90023994208BF8F
:10265400904203D210F1807041F10001704700BF35
:10266400FC08002000500150900100202DE9F74F94
:1026740016461F460546FFF78FFF0090FFF7D4FF6D
:10268400B94208BFB0427BD200234FF08072B6EB50
:10269400000867EB01094B4508BF42457DD3404B19
:1026A40003EB0513D3E902239F4208BF964251D09E
:1026B4004FF4803B26F07F4214464FEA850905F12A
:1026C400500809F150294FEA880809F580391FFAA2
:1026D40088F808F15028D9F84005324B08F58038BD
:1026E4000BFA05FBD3F804A5A0EB0A0020F07F4009
:1026F4002AF07F410128C9F8401505D10192132021
:1027040002F016FE274B019A0AF1020CA4EB0C000E
:1027140020F07F400021B0F5000F88BF6446C8F860
:102724000010D8F8000024F07F40C3F844B3C9F87F
:102734004005D3F80405824506D0201A023820F05B
:102744007F40B0F5000F19D8A41A24F07F44321941
:1027540047F10003124C290104EB0510C0E90223E0
:102764000C9A0D9B625000244360009B13B12846D1
:10277400FFF734FF204603B0BDE8F08F2046B1E7F1
:102784000123094AAB40D2E8EF1F1943C2E8E01F16
:102794000028F8D132463B46DCE76FF01504E4E745
:1027A4009801002000500150F408002073B5002463
:1027B4004FF0FF304FF0FF31164D174BC5F8084569
:1027C400C3E902014FF4803302264FF40012C5F826
:1027D4000433124B0121C5F804631520C3F880218A
:1027E4002246FEF7F9FD1520FEF7D8FD01230C4A19
:1027F400204613600B4A2B6013600B4B0B4A00936B
:1028040001940023FFF732FF3046FFF7E1FA204638
:1028140002B070BD005001509801002000E100E0BA
:1028240008500150F808002025250000FFFF7F0014
:10283400334B2DE97343D3F804339A0709D5314B4D
:102844001A6832B100221A602F4A1B6813680133D8
:1028540013604FF02003EFF3118283F31288BFF368
:102864006F8F274BD3F80433DB030ED5274BD3E804
:10287400EF1F21F00100C3E8E40F002CF7D1244B33
:10288400002936D11968002933D1002382F3118835
:10289400BFF36F8F53B3FFF7C7FE04464FF0200317
:1028A400EFF3118083F31288BFF36F8F194B00226B
:1028B400D3E90289494508BF44451FD3D3E900162B
:1028C4004FF0FF344FF0FF351A604FF48032C3E904
:1028D40002450B4BC3F8482380F31188BFF36F8F75
:1028E40021B142464B4600200096884702B0BDE81D
:1028F4007083002119601B680123C7E71146EBE7C9
:102904000050015004510150FC080020F40800203C
:102914004051015098010020431C13B520D00128D8
:1029240020DDB0F5000F1FDA441EFFF77DFE0F4BCC
:102934000F49D3E90023801AB0F5000F28BF002403
:10294400013004440B480091844228BF044600200F
:102954001219019043F10003FFF788FE02B010BD85
:102964000448E1E70024E0E7024CDEE7A801002088
:1029740025250000FFFF7F0008B5FFF755FE024B39
:102984001B68C01A08BD00BFA801002000F48053D2
:1029940070B5002B0F4E0EBF15460125002110F017
:1029A400200F0D4B18BF334600F01F04C0F38112F3
:1029B40003EB840300F47060D3F8004240EA82021F
:1029C4000A4304F0E04442EA45022243C3F80022E9
:1029D40070BD00BF0028845000258450064B074971
:1029E40000F01F024009012814BF184608460123BD
:1029F4009340C360704700BF002584500028845072
:102A0400064B074900F01F024009012814BF18466D
:102A14000846012393408360704700BF002584501B
:102A240000288450064B1A680433072A1B6805D112
:102A3400023B032B02D8034AD05C70470020704746
:102A44003001FF00C85800004FF05023D3F8582538
:102A5400034B02F00302D340024A1360704700BFE5
:102A64000020A1074000002008B5FFF7DBFF48B1B4
:102A74003A4B1A6832B90D2119600121A3F582730A
:102A840019601A600022D30003F57F03D3F8001302
:102A9400013107D0D3F800130132D3F80433202ACC
:102AA4000B60F0D1FFF7BEFF002850D1FFF7BAFF4B
:102AB40038B12B4B2B4A1A604FF050230122C3F834
:102AC4005825294B1A680433072A1B6808D1023B8E
:102AD400032B05D8254AD35C13B10022244B1A607A
:102AE400FFF7A0FF50B14FF05023D3F80024D107D3
:102AF40042BF0022C3F81421C3F818211A4B1D4AFF
:102B04001B681268072B09D14FF05023D3F8002417
:102B1400D20744BF6FF00102C3F80024FFF782FF1D
:102B240010B16522144B1A60144AD2F88C3043F465
:102B34004063C2F88C30124A124B1168C3F8441532
:102B4400D269C3F84C25BDE80840FFF77DBF2922B0
:102B5400094B1A6003221A63A8E700BF204A0050F9
:102B6400309503504400EFBE3001FF00CC58000004
:102B74004C2503503401FF000C47005000ED00E0E9
:102B84000080FF000060005070B501250268B2FAB1
:102B940082F3C3F11F035E1CDCB210D005FA03F309
:102BA40022EA0303D0E8EF6F964204D1C0E8EC3F79
:102BB400BCF1000FF6D1E9D102480C7070BD024897
:102BC400FCE700BF0000AD0B0200AD0B036810B5BD
:102BD400CB40DB0711D4012303FA01F1036841EA76
:102BE4000302D0E8EF4F9C4204D1C0E8EC2FBCF1C3
:102BF400000FF6D1F2D1024810BD0248FCE700BF35
:102C04000000AD0B0400AD0BF7B50546032875D8DD
:102C1400DFE800F00210303D4FF050230222C3F8E9
:102C24000823002203F582731A601B68344B0122C7
:102C34001A600CE04FF0502201230021C2F808333F
:102C4400C2F8001102F5807212682E4A1360012343
:102C54009D4218BF002442F210774FF050268DF8A1
:102C6400073008BF0DF10704032D47D8DFE805F04E
:102C74001C2D363F4FF050234FF40072C3F8082345
:102C8400002203F592731A601B681F4BCFE74FF0C5
:102C940050234FF48072C3F80823002203F5907385
:102CA4001A601B68194BC2E724B1D6F8183403F034
:102CB40003032370D6F81834DB031FD5D4B90120DD
:102CC40002F05BF9013FCFD118E024B1D6F80C34FF
:102CD40003F001032370D6F80C34EDE724B1D6F8E1
:102CE4005C3403F001032370D6F85C34E4E7D6F8CF
:102CF4005434E1E79DF80730012BE0D003B0F0BD78
:102D04000C50005004500050245000501C500050EF
:102D1400044B1A7922B9012218601A7102487047CB
:102D240002487047000900200000AD0B0C00AD0BF9
:102D340008B503281ED8DFE800F002333D4A4FF0FF
:102D44005022D2F81834D2F81814C90313D4D2F884
:102D54001434DB0719D401234FF050220021C2F8A8
:102D64001835214B19601B680223C2F80433012271
:102D74001E4B1A6008BD03F00303022BECD0012B99
:102D8400EAD00020FFF740FFE5E7D2F81C3403F057
:102D94000303013B012BF4D80223C2F80433E9E70F
:102DA4000022134B1A601B6801224FF05023C3F812
:102DB4000423DEE700220F4B1A601B684FF40072F5
:102DC4004FF05023C3F8042301221A62D2E70022F1
:102DD400094B1A601B684FF480724FF05023C3F8FC
:102DE400042301229A61C5E70451005008500050A1
:102DF400005100502451005020510050264B10B572
:102E04001A6852B1002018601B6801224FF0502349
:102E1400C3F80823214B1B689847214B1A688AB1D1
:102E240000221A601B684FF05023D3F81824D3F8FB
:102E3400181402F00302012A4FF0020124D1C3F84E
:102E440018159A60174B1A6862B100221A601B6841
:102E54004FF480724FF05023C3F808230F4B042023
:102E64001B689847104B1A68AAB1BDE810400022AD
:102E74001A601B684FF400724FF05023C3F8082304
:102E8400064B05201B681847C3F80813034B0120A1
:102E94001B689847D6E710BD005100500009002078
:102EA4000451005020510050245100500146014863
:102EB400FFF76ABE44000020036803F01F020260AB
:102EC400034A04485B09012B08BF1046704700BF42
:102ED400002884500025845070B50D4C00F108037F
:102EE40034F813300546DA050E4607D5C3F34323F9
:102EF40004EBC302526854F833309847A3682BB1EB
:102F040031462846E268BDE87040184770BD00BFEE
:102F140048000020124B083033F8102010B4D105BB
:102F24001BD5C2F3432122F4F85223F810200020C9
:102F340003F1100434F8022B12F4807F03D0C2F39F
:102F44004322914209D001303028F3D100220548B0
:102F540010BC43F83120FFF739BE10BC704700BFE6
:102F640048000020BC00002038B50C4C00F10805D6
:102F740034F815309A060AD500225B0B9B0003F146
:102F8400A04303F55043C3F81025C3F81025FFF7F9
:102F9400C1FF002324F8153038BD00BF48000020CD
:102FA4002DE9FF411D46044616460B4609B34E4F14
:102FB40000F1080837F8182002F02202222A03D16F
:102FC4004A4804B0BDE8F08100220DF10E01CDE9BC
:102FD40000228DF80E208DF80F200DF10F0201F064
:102FE400E2FF37F8183023F0020343F0010327F817
:102FF400183096B13C4B3078726804F1080633F807
:1030040016108F070CD5002ADAD133F8162022F0D7
:103014001C0242EA800023F81600D5BB3448D0E7EE
:1030240021F02001C904C90C23F81610002AECD0A1
:103034000328C5D892F800C06246920002F1A0426B
:1030440002F5504220B9C2F81005C2F81005DCE7B9
:10305400D2F810754FEA042E27F00307C2F8107552
:10306400D2F810750EF47C5E27F44F3727F44077BE
:10307400C2F81075D2F8107541EA4C3147EA00479E
:1030840047EA0E0741F02001C2F8107523F8161024
:10309400BBE72046D5E90067FFF73CFF002EBDD013
:1030A400114D2B689E4204D16B689F4201D10022CE
:1030B4000AE010480DF10F01FFF766FD0C4B984232
:1030C4007FF47FAF9DF80F2005EBC20308345F60E7
:1030D40035F8143045F8326043EA422343F48073F0
:1030E40025F814309AE700BF480000200400AD0B17
:1030F4000000AD0BBC000020F0B50446154685B0B9
:1031040009B3334E00F1080736F81730980701D495
:103114009A065AD413F01C0F02D04B78012B54D0CA
:1031240001238DF80F3000234A1CCDE900132046FB
:103134008B1C0DF10F0101F036FF36F8173043F008
:10314400030326F8173015B9224805B0F0BD204E08
:1031540004F1080736F81700830736D595F800C040
:103164000023614620F02000890001F1A041C00441
:1031740001F55041C00CC1F8103526F81700C1F80C
:1031840010356A78002ADFD0D1F81035AD7823F4F1
:10319400991323F4F853C1F81035D1F810E523023C
:1031A40003F47C53120443EA0E0302F440322D0567
:1031B400134305F4801540EA4C302B4340F02000C3
:1031C400C1F8103526F81700BEE70348BDE700BF75
:1031D400480000200000AD0B0400AD0B014BC3E917
:1031E4000201704748000020054B083033F81030C6
:1031F4009A0643BF5B0B03480B700348704700BF3C
:10320400480000200000AD0B0400AD0B38B50E4C97
:1032140094F87850B5B96022294604F1100001F001
:1032240077FC0D20FEF7BAF84FF00042074B084830
:103234001D601B68074BC3F80423012384F878300E
:10324400636738BD0448FCE7480000207CD1005087
:103254000000AD0B00D000500500AD0B034B93F8FC
:103264007800003818BF0120704700BF48000020D4
:1032740001460148FFF7AABCB800002001460148F6
:10328400FFF782BCB80000201F4B37B500F10802DD
:1032940033F8123004469A061DD513F002051AD1EC
:1032A4005B0B9A0002F1A04000F5514002F1A042EC
:1032B400056002F550420068D2F8100540F00100A4
:1032C400C2F8100529B1012202FA03F30F4AC2F829
:1032D400043303B030BDC3F38203042B0FD0052B9A
:1032E4000FD001A80194FFF7E7FD019B0169D940C4
:1032F40001F001010231204601F09CFEE9E70321BF
:10330400F9E70221F7E700BF4800002000D0005091
:103314000E4B00F1080233F81230990613D59A07C0
:1033240011D401225B0B9A4009499B0003F1A0438D
:10333400C1F8082303F55043D3F8102522F0030203
:10334400C3F810257047002101F074BE4800002026
:1033540000D00050104B00F1080213F8123013B5DE
:10336400DB07044616D5FFF7D3FF2046FFF7FCFD25
:1033740001A80194FFF7A0FD019B00EB8300D0F8A6
:10338400003203F0E04343F00203C0F80032034884
:1033940002B010BD0248FBE7480000200000AD0B5E
:1033A4000400AD0B2DE9F04F002501222C465E4BA5
:1033B4005E485F4989B01E6836B1D0F8046316428E
:1033C4001EBF1C601E68154304338B424FEA420241
:1033D400F1D1584F3B6833B3574E336A0693336287
:1033E400564B1A6A07921A62CDE901634FF000083E
:1033F4004FF0010B0DF11809D9F80030CBB908F1E1
:103404002008B8F1400F09F10409F5D13B603B688D
:10341400019B02991A6A06921A62029B1B6A07931D
:103424000B621343E2D10124002D64D109B0BDE83D
:10343400F08F93FAA3F3B3FA83F308EB0306404B3C
:1034440006F1080233F81220F408C2F3820303934E
:1034540006F007009A4606AB0BFA00FC185D9108CB
:1034640020EA0C00185505A80596FFF725FD059CD4
:103474004B0704F1800450F82440C4F3014421D5DF
:1034840051463046FFF728FD05A80596FFF714FDC1
:10349400059AE4B2803250F82220C2F301429442E9
:1034A40007D10021304601F0C5FD2146304601F028
:1034B400C1FD05A80596FFF7FFFC059B0BFA03F376
:1034C400036299E7022C0CBF03210221304601F06C
:1034D400B1FD039B032B04D0022C07D1BAF1010FD9
:1034E400E7D151463046FFF7F7FCE2E7032CE0D181
:1034F400BAF1020FF4E795FAA5F3B3FA83F304FAE9
:1035040003F29B0003F1A04303F55043D3F81005E5
:10351400D3F81015C0F30520C1F3014125EA0205D3
:10352400FFF7DAFC80E700BF00D1005000D0005064
:1035340020D100507CD100500025845000288450B4
:10354400480000200E4B70B553F82040013053F86A
:103554002060A64200D870BDD4E9003528469847BB
:1035640065B1EB6830B10028B8BF4042FF28A8BF5E
:10357400FF2018705A7842F001025A700834E8E7C4
:1035840078570000012208B5094B02201A70FFF792
:10359400D9FF00F093FF0320FFF7D4FF00F038F9C0
:1035A400FCF754FF034A137B23F00103137308BD94
:1035B400190B00203002002008B50348034A0021FB
:1035C400121A01F06CFD08BD900100201C0B0020B4
:1035D4000023012270B586B0CDE904230F221825FB
:1035E400CDE902324FF4A07201930E4B0E4E05FB4F
:1035F40000350E4906EBC016044602FB00110C4BC5
:103604003046009500F0D4F8737B0A482C750134D9
:1036140023F0040300EBC4247373EE606C6006B003
:1036240070BD00BF08090020B0010020200F002059
:10363400D13800006010002080B52D4BA6B003F5F2
:10364400006282F3088883F30A880024E023294D6A
:10365400294E85F82230EC772C766C76AC7685F89A
:1036640020406B6A254F43F4E0236B6285F82340C6
:10367400FEF77CF8FDF774FE4FF0FF33AB62EB62AC
:10368400FEF768FAFEF722F940F20113ADF8243090
:1036940006ABB360CDE91F44229401F0DAFC204666
:1036A400FFF750FF0120164DFFF74CFF00F088FC98
:1036B400144BF5610593012313494FF48062CDE95E
:1036C400034328463B46CDE90144009400F070F8DA
:1036D40006466A7B284622F004026A7301F06DFDF7
:1036E4002046FFF775FF3A4631462846FDF71CFF92
:1036F4006010002000ED00E008090020893500007A
:1037040030020020D0580000200B002070B50E4B72
:103714000E4CA34201D3002070BDD3E9030141EA5A
:10372400000212F003020BD19D685A61AA4201D132
:103734001C33EEE75E6901320E6059610144F5E71E
:103744006FF01500E8E700BF3C0100203C010020B9
:10375400D3B50C4616461F464FF02003EFF31181F4
:1037640083F31288BFF36F8F43695BB123601B68D7
:103774004361836901338361002081F31188BFF3BE
:103784006F8F11E056EA070203D16FF00B0023603C
:10379400F3E70246CDE90067083000F063FB18B98F
:1037A400024B9B685B69236002B0D0BD080900200E
:1037B4002DE9FF410E9E00F1580506730426C0E969
:1037C40016550025044646730D9EC0E906558673BA
:1037D400D61D0C9A26F00706C0E919168560C57334
:1037E400C56602920B9A01EB060801920A9A0092AE
:1037F4004246FDF77DFE054B65659B6803B11B6F73
:103804004046236704B0BDE8F08100BF08090020EA
:103814002DE9F0472A4E2B4DB04686B0B54205F14E
:10382400300410D300F0D4F94FF4004940F2E736E5
:103834000027244CDFF890A0444521D306B0BDE80E
:10384400F04700F0A1BB54F8043C059354F8103C35
:10385400049354F8143C039354F8183C029354F81A
:103864001C3C019354F8203C009354E90A2354E986
:103874000C01FFF79DFF54F8303C5D652546CDE70C
:10388400636A5A1C0DD03046394623EAE373C9FBF8
:103894000301B94208BFB042256804D1284600F0AC
:1038A40085FA3034C8E74FF47A720023FCF750FCF1
:1038B40002460B4605F11800514600F0F3FCF0E710
:1038C4003C0100203C010020DF51000008B50B4CF6
:1038D4000B4D4FF02002EFF3118382F31288BFF3F4
:1038E4006F8F01F0F7FC2B78A06113B9FDF73EFD53
:1038F400EFE7FDF787FB0028EBD1F7E70809002085
:10390400190B00202DE9F341044616461F464FF0DB
:103914002003EFF3118883F31288BFF36F8FC3681A
:10392400354A6BB180689168884219D056EA07031A
:1039340018D188F31188BFF36F8F6FF00F000CE07C
:10394400916891F90E100133E36093682161A360DB
:1039540088F31188BFF36F8F002002B0BDE8F081B7
:103964002169F0E791F90E1090F90E306FF07E02A4
:103974009942A8BF19469142B8BF11468B422FDD28
:1039840000F084FA054622464146CDE900671B480B
:1039940000F068FA0028E0D04FF02003EFF311861E
:1039A40083F31288BFF36F8F236821699C420AD086
:1039B4004BB193F90E309942A8BF19466FF07E03BC
:1039C4009942B8BF1946A06890F90E30994209D1BE
:1039D4006DB13146094800F0E9F86FF00A00BCE720
:1039E4000025D0E700F052FA0028F2D1F0E786F380
:1039F4001188BFF36F8FF0E7080900201A0B00202D
:103A040038B583680446002B36D01E4A9268934228
:103A140035D1DA7B013ADA73C368012B05D9013B4E
:103A2400C36000F0B1FA002038BD4FF02003EFF37B
:103A3400118583F31288BFF36F8F0169806890F951
:103A44000E30994201D000F021FA204601F014FC16
:103A5400A06058B190F90E2022610022826701F023
:103A6400ACFB2946084800F0A1F8DAE7E06085F3EA
:103A74001188BFF36F8FD4E76FF01500D4E74FF0D0
:103A8400FF30D1E7080900201A0B002038B504469E
:103A94004FF02003EFF3118583F31288BFF36F8F88
:103AA40001F0EAFB48B10022826701F086FB294657
:103AB400BDE83840044800F079B8D4E902329A42AB
:103AC40018BF0133A360F2E71A0B002037B5144680
:103AD4001D464FF02003EFF3118183F31288BFF3E7
:103AE4006F8F836843B1013B836081F31188BFF317
:103AF4006F8F002003B030BD54EA050306D181F373
:103B04001188BFF36F8F6FF00F00F3E70246CDE922
:103B14000045024800F0A6F9ECE700BF1A0B0020AC
:103B240038B5074D2C6854B1FEF726FF054B044405
:103B34001C6128680021BDE8384001F0DBBB38BDBA
:103B44003809002008090020F8B505460E464FF054
:103B54002003EFF3118783F31288BFF36F8F0023E1
:103B64004FF4004C40F2E73000210D4C4FF47A72D0
:103B74002361ECFB05010023FCF7EAFA002D094B55
:103B84000ADC1860084BA0681E60FFF7C9FF87F3C2
:103B94001188BFF36F8FF8BD0228B8BF0220F0E789
:103BA40008090020380900203409002049B9EFF33E
:103BB400058030B9054BDA699B689A4201D0FDF75C
:103BC40041BC81F31188BFF36F8F7047080900204F
:103BD4004FF02003EFF3118183F31288BFF36F8F4B
:103BE400044B9A68D37B013BD37381F31188BFF3F1
:103BF4006F8F70470809002038B502460C4801F061
:103C0400D2FA0C4D044600B9EC68AB684AB95A7B49
:103C1400D20606D1A26922B9DA897F2A01D9EB61D9
:103C240038BD9C4202D02046FFF77AFFEC61F7E7EB
:103C3400280900200809002070B590F90D200146DC
:103C4400002A437B04DA03F07F03437301F083FA11
:103C5400174A4B7B104663F07F034B7350F8203FA9
:103C6400556A834208BF0023002B38BF0023CBB121
:103C740091F90E6093F90E40A6420FD0A41B002CBC
:103C84000CDD5868C1E90030016059609068BDE8F6
:103C94007040431A58425841FFF7AEBFAB4201D0BF
:103CA4001B68E4E7C1E9000529605162EEE700BF43
:103CB4000809002070B54FF02003EFF3118583F35A
:103CC4001288BFF36F8F184B184A9C6811688C4296
:103CD400194607D12046FFF723FF85F31188BFF368
:103CE4006F8F70BD00261660114A1268C2B1E28956
:103CF4007F2A15D8627BD20612D10E4A94F90E603F
:103D0400126896420CDB0C4A944209D01A6982422A
:103D140003DC2046FFF790FFDCE7121A1A61DCE7A8
:103D240000230B61D9E700BF0809002030090020F7
:103D34003809002034090020B001002070B490F943
:103D44000D30427B002B2DDBD3062BD183694BBB7B
:103D5400154962F07F0242730A4652F8204F4D6AB9
:103D6400944218BF2346002B38BF0023ABB190F90F
:103D74000E6093F90E40A6420BD0A41B002C08DD64
:103D84005A68C0E9003210605860002070BCFFF728
:103D940033BFAB4201D01B68E8E7C0E900252860C7
:103DA4004862F2E770BC70470809002010B54FF074
:103DB4002002EFF3118482F31288BFF36F8F427BEA
:103DC400510704D484F31188BFF36F8F10BD22F020
:103DD40004024273FFF7B2FF2146BDE810400148D8
:103DE400FFF7E4BE1A0B002008B590F90D20014638
:103DF400002A437B04DA03F07F03437301F0ABF939
:103E0400044B9868431A58425841BDE80840FFF7EC
:103E1400F3BE00BF080900202DE9F0410646144610
:103E24001D464FF02003EFF3118783F31288BFF38D
:103E34006F8F01F0F4F987F31188BFF36F8F6B1C58
:103E440008BFB4F1FF3F08D022462B4606F1180004
:103E54000349BDE8F04100F025BABDE8F08100BF98
:103E6400DF51000010B50C46064B11469868064B0E
:103E74001860DDE90223FFF7CFFF2046BDE81040BC
:103E8400FDF7E0BA0809002030090020F8B504461F
:103E94004FF02003EFF3118683F31288BFF36F8F83
:103EA400437B49B2DA0638D18569002D35D103F058
:103EB4007F03437301F04FF9437B817363F07F0306
:103EC40043731748034653F8207F9F4218BF3D466B
:103ED400002D1A462B4638BF0023476AC3B193F915
:103EE4000E50A94210D06D1A002D0DDD5A68C4E998
:103EF400003214605C600120FFF77EFE012086F32F
:103F04001188BFF36F8FF8BDBB4201D01B68E5E792
:103F1400C4E900273C604462EDE70020A173EEE7AA
:103F24000809002070B50446183001F0BDF94FF0BF
:103F34002003EFF3118683F31288BFF36F8F94F994
:103F44000D20637B002A05DA03F07F0320466373A8
:103F540001F001F90B4D637BA86843F01003637310
:103F6400031B58425841FFF747FE86F31188BFF3FD
:103F74006F8FAB68A34203D1BDE8704001F009B96B
:103F840070BD00BF0809002010B54FF02003EFF307
:103F9400118483F31288BFF36F8F084B00209A6853
:103FA400D37B0133D373FFF727FE84F31188BFF368
:103FB4006F8FBDE8104001F0ECB800BF0809002085
:103FC4000021044B084603F12002C3E90822FFF74D
:103FD400BBBD00BF08090020F8B54FF02003EFF384
:103FE400118483F31288BFF36F8F1B498868437B66
:103FF40003F07F03437301F0AEF808468A68537BED
:1040040063F07F03537350F8203F4E6A834208BF26
:104014000023002B38BF0023CBB192F90E7093F923
:104024000E50AF420FD0ED1B002D0CDD5968C2E9D4
:1040340000310A605A600120FFF7DEFD2046BDE82A
:10404400F840FDF7FFB9B34201D01B68E4E7C2E9C9
:10405400000632604A62EEE7080900202DE9F041CB
:1040640004460D4654EA050104D1FFF7B5FF0020CC
:10407400BDE8F0816FF001010A1A4FF0FF3161EBE6
:104084000503012A73F100032ADA01F04DF9061938
:104094004FF02003EFF3118883F31288BFF36F8F7F
:1040A400114F124BB8681860FFF79EFEB8681049AC
:1040B40022462B46183000F0F5F8BA684046537B88
:1040C40043F010035373FDF7BDF901F02DF9301AD5
:1040D40066EB0601012871F10003B8BF0020C7E7B1
:1040E4006FF00106361AD3E70809002030090020D2
:1040F400DF51000008B50B46013308BFB0F1FF3FA4
:1041040006D1084B9868FFF70DFF4FF0FF3008BD4C
:10411400FFF7A4FF4FF47A7380FB0323D00B40EA2C
:104124004340F4E708090020014B9868704700BF3A
:10413400080900202DE9F04104464FF02003EFF375
:10414400118683F31288BFF36F8F437B1A0705D55B
:1041540086F31188BFF36F8FBDE8F08123F020024E
:1041640042F00801D20920D14173A36813B120465B
:1041740000F0F9FF04F1180001F096F84FF0000880
:1041840004F15807A56DBD4200D0B5B90120FFF771
:1041940033FD104B9B68A342DAD1EFF30583002B68
:1041A400D6D13046FDF74EF9D2E703F05F0343F072
:1041B4000803437300F0CFFFD7E7284600F0D3FF8E
:1041C40005F1180001F070F82846C5F87880FFF76B
:1041D400B5FDD7E70809002008B50648064A07498F
:1041E400121A00F05EFFBDE80840054A054906487A
:1041F40000F057BF000000208C010020105900007F
:10420400000000001059000000000020034B1B6850
:104214000BB9FEF7B1BB0020704700BF3C0900207A
:1042240030B5036868B10A4A5268904209D043B174
:10423400D3E90421D0E90445121945EB0101C3E98E
:104244000421426813605A600023C0E9003330BD82
:10425400C400002038B5114B1C689C4208BF0024E0
:10426400FFF7D4FF0546ACB1D4E90401401B61EB70
:10427400E571B0F1004F71F100030BDA002871F120
:10428400000300DA0020064B1B6913B19842A8BF53
:10429400184638BD6FF00040F5E700BFC4000020A9
:1042A40008090020B3F1FF3F08BFB2F1FF3F2DE939
:1042B400F74F044692469B4673D081604FF020032B
:1042C400EFF3118583F31288BFF36F8F6FF001034F
:1042D4004FF0FF32B3EB0A0862EB0B09B8F1000FA1
:1042E40079F100011CDB3048D0E900105B1A62EB65
:1042F4000002B3EB0A0662EB0B07012E77F1000311
:10430400BCBF01260027C4E90467284AD2E9003C5F
:1043140093421ED1C4E9002CCCF8004054602DE037
:10432400FFF774FF1AF1010300934BF100030193AB
:10433400DDE90023121843EBE073C4E90423E4E746
:10434400B6EB080067EB09016345C4E90401E1D059
:104354001B68002BDED0D3E90489D4E90467464501
:1043640077EB0901ECDAB8EB060069EB0701C3E966
:1043740004015968C4E900310C605C60136893421D
:104384000BD09C4209D1FFF765FF18B1084B1B699C
:10439400834202D00021FEF7BFFA85F31188BFF3F0
:1043A4006F8F03B0BDE8F08FB0020020C40000207E
:1043B400080900202DE9F74F0646FFF77BFC4FF074
:1043C4002003EFF3118483F31288BFF36F8FDFF8B8
:1043D400B0A02A4D5146DFF8ACB02E60D5F800C02D
:1043E400DBF800006246DAE90089D3175845CDE9C5
:1043F40000230DD060B1D0E90467B445BB411DDA98
:10440400009BB6EB030C019B67EB0306C0E904C6F3
:104414000026009B2E6013EB0802019B43EB09036B
:10442400C1E90023FFF716FF3146FEF775FA84F35E
:104434001188BFF36F8F03B0BDE8F08F0022002313
:1044440018EB060849EBE679C0E90423ACEB060651
:10445400CAE900892E60FFF7E3FE84F31188BFF3F5
:104464006F8F836898474FF02003EFF3118483F331
:104474001288BFF36F8F0249B0E700BF3C090020E8
:10448400B0020020C400002010B54FF02003EFF369
:10449400118483F31288BFF36F8FFEF76DFA064B16
:1044A400D3E90023121843F1000384F31188BFF306
:1044B4006F8F1046194610BDB0020020024A03490E
:1044C400034800F0A1B900BF0C590000D558000002
:1044D400E658000010B50A4C23681BB101230020E4
:1044E400236010BD00F0DCF80028F7D0013807285D
:1044F40003D8044B53F8200010BD034810BD00BF7F
:104504004009002090570000FE8FFFFFBFF34F8F3C
:104514000549064BCA6802F4E0621343CB60BFF35B
:104524004F8F00BFFDE700BF00ED00E00400FA0577
:1045340030B44FF0FE3200250B4B0C4C0C4949684B
:10454400C3F80024C3F80424C3F80824C3F80C24D3
:10455400C3F81024C3F81424C3F81824C3F81C2483
:10456400C4F8005530BC08470050845000408450C3
:10457400CC000020024BD0E90012C3E900127047BE
:10458400CC00002010B5044630B16368DB0602D5C8
:1045940000232360636010BD024B03485B689847A7
:1045A400F3E700BFCC000020B0570000B0B143686F
:1045B40093B1DB060ED5012350E8002F194640E8DD
:1045C400001C9CF0000FF7D1012AF5D0BFF35F8FD8
:1045D4000020704703487047034870476FF4E04079
:1045E400704700BFE98FFFFFEA8FFFFF034668B102
:1045F40042683AB1D20607D5BFF35F8F0022104656
:104604001A60704703487047034870476FF4E040EE
:10461400704700BFEA8FFFFFE98FFFFF10B5044624
:1046240020B1002211232260636010BD0148FFF70E
:104634007FFFF6E7D857000070B5164CD0F804C0D9
:104644000668C4F804C0D0F808C0C068C4F808C03C
:10465400E06026600868104B104D18604868D5F873
:104664001821586088689860C8680969D860196119
:10467400D3060DD5002305F58A70C5E94533C5E990
:104684006E33B047236805F5DC70BDE87040184709
:1046940070BD00BFDC000020EC00002058090020A1
:1046A40008B500F011F830B900F010F838B9054A2F
:1046B400C2F80C0A08BD00F037F8032008BD042036
:1046C40008BD00BF005084500020704710B5114849
:1046D40000F048F800B110BD0F4800F043F800287E
:1046E400F9D10E4C204600F03DF80028F3D10C4BD4
:1046F4000C481C6000F036F801460028EBD100F0AD
:104704002DF8044608B1204610BD00F03FF82046BD
:10471400FAE700BF24010020180100202001002036
:10472400280100201C01002008B5084800F024F8E6
:10473400074800F021F8074800F01EF8064800F08A
:104744001BF8BDE8084000F00BB800BF24010020AE
:1047540018010020200100201C01002000207047C7
:10476400704700BF08B5034B02681B681068984780
:10477400002008BDDC00002008B5034B02685B681C
:1047840010689847002008BDDC00002070B5094C73
:10479400094D2069AB68984718B1084B08485B6815
:1047A40098470021074AEB6811602069BDE8704012
:1047B400184700BFEC000020DC000020CC000020E3
:1047C400FC57000054090020034658B1426802F027
:1047D4000302012A03D0032A04D1026812B1002083
:1047E400986070476FF0150070474268034602F006
:1047F4000302032A4FF00002816014BF10460068D0
:104804005A607047002070470FB407B504A951F8E7
:10481400040B0191FBF74EFE03B05DF804EB04B00A
:104824007047038B13F0070305D10368002B0CBFFB
:10483400002003207047022B05D1438B002B14BFAB
:10484400002004207047012B05D10368002B0CBF06
:10485400002005207047002070472DE9F0410D46E7
:1048640007461946281D90461E46FFF7BEFF04461C
:1048740038B13346424629463846A446BDE8F0419D
:104884006047BDE8F08110B44FF02004EFF31182CB
:1048940084F31288BFF36F8F416110BC0121FBF7D1
:1048A40017BE10B50C4640B139B1081DFFF78CFF97
:1048B40028B9A36833F0030301D06FF0150010BDCD
:1048C40038B50C46054658B151B10B6843B14B6835
:1048D40033B11C22002100F01BF900202C6138BDEB
:1048E4006FF01500FBE770B504460E46FFF7D9FFDD
:1048F400051E31DB4FF02003EFF3118183F312889F
:10490400BFF36F8F4FF6FF75638B208BAB4200F0C4
:1049140007022ED0022A0ED10133638315460123E8
:1049240081F31188BFF36F8FB3B100233146204662
:10493400FFF793FF10E0830701D0062A0ED100236E
:104944003360636893B9C4E90066154662B90A46E0
:1049540020460221FBF7BCFD284670BD052A0CBF8A
:104964006FF085056FF004050023D9E71E606660CB
:10497400EBE76FF00A05F7E7044608B50846114669
:104984001A46A047FFF7D0FBFCF78AFF2DE9F74F43
:104994009946D37814466F2BA3F1410206460F467D
:1049A40001922DD028D8582B14BF0A251025AA46C9
:1049B4004FF0000BDDF8308052465B4630463946F6
:1049C400FBF7C6FB092AD3B21FD830335F45DBB2ED
:1049D40008BF564508F8013D01D3C84512D82378CD
:1049E4009B0605D5082D16D1A37843F00803A370C0
:1049F400404603B0BDE8F08F03F0F703702BD3E714
:104A04000825D4E706460F46D6E7019A192A94BF2B
:104A140037335733DAE7102DEAD1A37843F0100384
:104A2400E5E72DE9F0410746884615461E4614463B
:104A3400B442A4EB050002D33EB923782BB141461E
:104A440014F8010BB8470028F2DABDE8F08170478A
:104A5400002383F31188BFF36F8F7047002008B5DC
:104A6400FCF7DCF900F000BB0146006800F0FCBA7A
:104A740000210120FFF7F6BF08B5FCF7C3FCBDE831
:104A84000840FCF785BD436E83F30B88704740E80C
:104A940000F313F4803FD8B208BF6FF015007047DD
:104AA4007FB50A898E7A0B684D6802F01F0242EACC
:104AB400461200938DF8082023F01F036A1E134446
:104AC40023F01F030728039304D86946FCF71AFF51
:104AD40004B070BD6FF01500FAE7034600201A5CBD
:104AE40002B970470130FAE7034600201A5C0AB1A4
:104AF400884200D170470130F8E710B5431E0A44DC
:104B0400914200D110BD11F8014B03F8014FF7E7B2
:104B14000346C9B20244934200D1704703F8011B13
:104B2400F9E74FF0FF307047CBB20C21026903FB69
:104B34000121886F00F0070070474FF02003EFF366
:104B4400118283F31288BFF36F8F036813F0C003DD
:104B540001D08B4207D101230360002082F3118826
:104B6400BFF36F8F70474FF0FF30F7E710B54FF08A
:104B74002003EFF3118283F31288BFF36F8F03686E
:104B840003F00704012C06D10160002082F3118890
:104B9400BFF36F8F10BD03F0C0038B4214BF4FF0FF
:104BA400FF306FF07700F1E74FF02003EFF311824D
:104BB40083F31288BFF36F8F036803F0C00343F0DD
:104BC4000203036082F31188BFF36F8F704710B440
:104BD4001C240069CBB203FB0400002110BC104765
:104BE4000320FEF7A5B80220FEF7A2B80020FEF7C6
:104BF4009FB8032000F0D5B9022000F0D2B90020FC
:104C040000F0CFB91046FEF741BF38B50C23CCB243
:104C1400634305460069783380211844FFF78DFF0C
:104C2400002805DB696801EBC40463689847002029
:104C340038BD2DE9F8430C27CDB26F43046906460D
:104C440007F178008021204490469946FFF78EFFB3
:104C5400002807DB3C44C4E91C89736853F83530E9
:104C640098470020BDE8F883436800205B681B690F
:104C74000B60704743685B68586842400A40424092
:104C84005A6000207047436800205B689960704751
:104C9400436800205B68D9607047436800205A6805
:104CA40053684B4053607047036930B5586858B136
:104CB4000024814213D108685CB99C685860A14201
:104CC40000D198600020086072B9002030BD2846E9
:104CD400EFE720609868814208BF9C60F2E70568AE
:104CE4000446002DF3D13AB15A680A6098685960B5
:104CF4000028EAD19960E9E76FF01500E6E7426819
:104D04001368D3F80413C90518D5D3F82011A9B131
:104D14004FF02000EFF3118180F31288BFF36F8FFF
:104D2400D3F8200130B10020C3F82001D3F82001CA
:104D34000120D86081F31188BFF36F8F5268D206C7
:104D440015D54FF02001EFF3118281F31288BFF3E0
:104D54006F8FD3F8581111B10021C3F800154FF427
:104D64008001C3F8081382F31188BFF36F8F704773
:104D74000B460269D2E9010183E803000020704771
:104D840043681B68D3F88004C3F880047047436801
:104D940002691B68D3F8100148B10020527C0A70E4
:104DA400C3F81001D3F8102101221A6070474FF0A4
:104DB400FF30704702680346D2F8580140B95B6877
:104DC4009B0706D4D2F82001003818BF0120704791
:104DD40001207047704770B56FF0604643681360F8
:104DE400047A1368A519446804EBC504A34202D9E4
:104DF4006FF0010070BD5C798C4202D008331360FF
:104E0400EEE70020F6E709B9FDF7E8BDFDF7F8BDC8
:104E1400F8B505460F4616460024A74201D10020E6
:104E2400F8BD55F824301A0C222A00F29380DFE8EA
:104E340002F0121E25472A3C47919191914C5191C1
:104E440091919191919191915663686D9191917223
:104E5400787D82878C0003F03F03C6F80C3555F843
:104E6400240000F03F00FDF7CBFD012216E003F023
:104E74003F03C6F814350022002110E003F03F037D
:104E8400C6F80835EBE703F03F03C6F8083555F8D4
:104E9400240000F03F00FDF7A1FD0022012155F898
:104EA4002400FDF773FD0134B7E703F03F03C6F8B0
:104EB4000C3555F8240000F03F00FDF78FFDD4E7D2
:104EC40003F03F03C6F81035D5E703F03F03C6F8F7
:104ED4000835D0E703F03F03C6F80C35CBE703F001
:104EE4003F03C6F8603555F82400C0F3403100F0A4
:104EF4003F00FFF788FFB8E703F03F03C6F86435C7
:104F0400F1E703F03F03C6F86835ECE703F03F032D
:104F1400C6F86C35E7E703F03F03C6F824350122F1
:104F2400AAE703F03F03C6F82835F8E703F03F0388
:104F3400C6F83035F3E703F03F03C6F83435EEE73F
:104F440003F03F03C6F83835E9E703F03F03C6F83A
:104F54003C35E4E76FF0850062E7002008B5FCF714
:104F640057FCFFF7B7BA08B5FCF71EF9FCF7E2F9EE
:104F7400BDE80840FFF7AEBA004700F0D9B908B55C
:104F84000520FCF71BFA10B90520FCF707FA4FF0CF
:104F940050230122C3F81825C3F81425C3F880252B
:104FA40008BDFDF731BEF7B51746DDE908460190A7
:104FB40001A81D46FDF780FF019B002F00EB830035
:104FC40014BF02230023002918BF43F00103002D5E
:104FD40014BF4FF00C0C4FF0000C002C43EA0C03F0
:104FE40014BF4FF4706C4FF0000C002E43EA0C0316
:104FF40014BF4FF4403C4FF0000CD0F8002243EAB9
:105004000C0322EA030301B109780FB13F787F0052
:1050140019430DB12D78AD0039430CB12278140237
:105024000D430EB1367836042C433443C0F80042A5
:1050340003B0F0BD1FB50DF10F03019300238DF8EC
:105044000F101A4619460093FFF7ADFF05B05DF83F
:1050540004FB704738B1C3681888C0F30800A0F592
:105064008073584258417047F8B505460E464FF0D4
:105074002003EFF3118783F31288BFF36F8FFFF7D9
:1050840053F8314604462846FFF767FF87F3118833
:10509400BFF36F8F2046BDE8F840FCF701BCFFF773
:1050A40037BDFFF72ABD30B50024846141EA02040C
:1050B40014F00304C0E9023201610CD14461A3423B
:1050C40003D1C0E90000002030BD456901340D6002
:1050D40041611144F3E76FF01500F5E7F8B50446B4
:1050E4000D464FF02003EFF3118683F31288BFF3CC
:1050F4006F8F476977B900F0BFF858B12A6887679E
:10510400426100F05AF8314604F10800BDE8F84065
:10511400FEF74CBD2B6862691A602B686361A36952
:10512400013BA36186F31188BFF36F8FF8BDEFF3E2
:105134000580003818BF0120704708B5FBF728FF29
:10514400BDE80840FFF746BE03460020C3E900332C
:10515400C3E902007047D0E9003213605A600023AB
:10516400C0E90033704708B5FFF7F5FF437B23F030
:10517400020343730023836008BD034620B9EFF3A1
:1051840005820AB9FCF75EB983F31188BFF36F8F08
:1051940070474FF02003EFF3118083F31288BFF3BD
:1051A4006F8FFFF7EABF03460068834203D00028ED
:1051B40038BF002070470020704710B54FF020031F
:1051C400EFF3118483F31288BFF36F8FFEF7B6FDFC
:1051D40084F31188BFF36F8F10BD014610B54FF0F3
:1051E4002003EFF3118483F31288BFF36F8F10F859
:1051F4000B3C13F0280F0DD151F8103C18380BB1AB
:10520400FFF7B1FF11F80B3C23F0140301F80B3C3A
:10521400FEF794FD84F31188BFF36F8F10BD38B58A
:1052240004460D46FEF7E0FD637B43F0020363731F
:10523400B5B12B68A5609D4208BF0023002B38BF81
:1052440000239BB194F90E1093F90E20914208D0DB
:10525400521A002A05DD5A68C4E9003214605C6001
:1052640038BD6A68934201D01B68EAE76B68C4E9F9
:1052740000531C606C60F3E738B54FF02003EFF384
:10528400118583F31288BFF36F8FFFF78CFF0446F9
:1052940020B1FFF768FF183000F006F885F3118895
:1052A400BFF36F8F204638BD10B54FF02002EFF3E7
:1052B400118482F31288BFF36F8F03683BB1FEF74A
:1052C400AFFF002084F31188BFF36F8F10BD6FF020
:1052D4001500F7E710B54FF02003EFF3118483F3C3
:1052E4001288BFF36F8FFEF7B5FF84F31188BFF305
:1052F4006F8F10BD70B504460D464FF02003EFF3D9
:10530400118683F31288BFF36F8FFEF7A3FF012882
:1053140005DDA04203DB29462046FDF7FDFA86F3AE
:105324001188BFF36F8F70BD08B5FFF7ADF808BDE6
:1053340008B1FBF7C7BD704770470000FDF794BB89
:0853440040AEFF7F01000000F4
:10534C00790E000000000000511C00009C5300006E
:10535C00113700000000000065200000CC53000055
:10536C0065200000B4530000674F000000000000EF
:10537C006D230000E4530000E11E0000000000005B
:10538C00B1270000000000006B4F0000000000007F
:10539C00AD580000C0560000A85600002C0100209B
:1053AC003008002036560000BA5800001057000094
:1053BC00EC56000034010020DC08002030560000C0
:1053CC00B358000020570000EC56000030010020BC
:1053DC00E80800202A560000C15800006857000059
:1053EC0054570000380100202C00002024560000E7
:1053FC0000000000754A000000000000754A000023
:10540C0000000000754A000000000000754A000012
:10541C0000000000754A0000012E00007D4F0000C6
:10542C0000000000754A000000000000754A0000F2
:10543C00E4530000034D000000000000754A00001A
:10544C0000000000754A000000000000754A0000D2
:10545C0000000000754A0000A93300007D4F0000D9
:10546C0000000000754A000000000000754A0000B2
:10547C0000000000754A000000000000754A0000A2
:10548C0000000000754A000000000000754A000092
:10549C0000000000754A00000000000035280000E4
:1054AC0000000000754A000000000000754A000072
:1054BC0000000000754A000000000000754A000062
:1054CC0000000000754A000000000000754A000052
:1054DC0000000000754A000000000000754A000042
:1054EC0000000000754A000000000000754A000032
:1054FC0000000000754A000000000000754A000022
:10550C0000000000754A000000000000754A000011
:10551C0000000000754A000000000000754A000001
:10552C0000000000754A000000000000754A0000F1
:10553C0000000000754A000000000000754A0000E1
:10554C0000000000754A000000000000754A0000D1
:10555C0000000000754A000000000000754A0000C1
:10556C0000000000754A000000000000754A0000B1
:10557C0000000000754A000000000000754A0000A1
:10558C0000000000754A000000000000754A000091
:10559C0000000000754A000000000000754A000081
:1055AC0000000000754A000000000000754A000071
:1055BC0000000000754A000000000000754A000061
:1055CC0000000000754A000000000000754A000051
:1055DC0000000000754A000000000000754A000041
:1055EC0000000000754A000000000000754A000031
:1055FC0000000000754A000000000000754A000021
:10560C0000000000754A000000000000754A000010
:08561C0000000000754A0000C7
:1056240000800080FF7F00800080FF7F008000807A
:08563400FF7F00800080FF7F72
:04563C00FFFFFFFF6E
:105640000338FDD87047000000000000614A0000E8
:105650006112000019120000D1120000B9110000FF
:10566000200000200800002018000020000000009A
:1056700010000020000000200000000006000100D3
:105680000200000088560000000000009E58000044
:1056900006000000E0FF0F0000000020A6580000F8
:1056A00021000000E0FF0620A11D00000F4C0000BB
:1056B000374C0000000000002D4B000000000000EF
:1056C000191D00007D1D0000F14B0000034C00007F
:1056D000EB4B0000FD4B0000E54B0000F74B0000DA
:1056E000F91B0000B11B0000000000009D2000001D
:1056F0006D4C0000794C00008B4C0000954C000074
:105700009F4C00008D1F0000AD4C00000000000009
:10571000FFFFFFFF00258450000000000000000094
:10572000FFFF00000028845000000000010000007E
:10573000008000504C5700000100000014000000E1
:1057400013000200D6000100D50003003C57000002
:1057500004000000934D00005D240000854D000012
:10576000F1210000754D0000008000500200000093
:1057700000000000305700004C5300008C53000024
:10578000945300009C5300009C530000F5FFFFFF62
:10579000FF8FFFFFFF8FFFFFFE8FFFFFFE8FFFFFDB
:1057A000FD8FFFFFFC8FFFFFFC8FFFFFFB8FFFFFD5
:1057B0006D757465785F667265652063616C6C6594
:1057C000642077697468204E554C4C20706172617A
:1057D0006D6574657200000043616E277420696E08
:1057E000697469616C697A65206D757465782C20BF
:1057F000776173204E554C4C0D0A0000436F756C59
:1058000064206E6F74206C6F636B20706F776572AD
:105810002073617665206D7574657800286E696CFB
:1058200029004661696C656420746F207265626F3F
:105830006F743A207370696E6E696E6720656E646E
:105840006C6573736C792E2E2E0A006D75746578F5
:105850005F696E69742063616C6C6564207769743C
:1058600068204E554C4C20706172616D6574657294
:1058700000436F756C64206E6F7420616C6C6F6395
:10588000617465206D75746578206265666F7265F8
:1058900020696E697469616C697A696E6700464C4B
:1058A0004153485F30005352414D5F3000434C4FED
:1058B000434B004750494F5F31004750494F5F30DD
:1058C00000554152545F300001000000010100000A
:1058D0006D61696E0076332E302E39392D6E63730B
:1058E000312D726332002A2A2A20426F6F74696E4A
:1058F00067205A6570687972204F53206275696C11
:1059000064202573202573202A2A2A0A000000001B
:1059100009480000FFFFFFFF3C01002001000000DC
:10592000500100200100000064010020010000007F
:105930007801002001000000274B0000000000005B
:1059400000C2010000010300000000000000000090
:105950000090D003FFFFFFFF0000000000000000E8
:105960000000000000000000000000000000000037
:105970000000000000000000000000000000000027
:105980000000000000000000000000000000000017
:105990000000000000000000000000000000000007
:1059A00000000000000000000000000000000000F7
:1059B00000000000000000000000000000000000E7
:1059C0000000000000000000FF00000000000000D8
:1059D00000000000C4000020C400002000000000FF
:1059E000114500004409002011000000214600007C
:1059F00089450000B1450000F1450000100100207C
:105A0000D400002008010020000000000001002058
:105A100048090020110000004C090020110000007E
:105A20005009002011000000F0000020FC000020C0
:0C5A3000F4000020EC0000202001002009
:105A3C00000000000000000000000000000000005A
:105A4C003C0100203C010020000000000000000090
:105A5C000E0000005001002050010020000000004A
:105A6C00000000000E000000640100206401002012
:105A7C0000000000000000000E0000007801002073
:105A8C007801002000000000000000000E00000063
:04000003000017B52D
:00000001FF
